:020000040800F2
:10000000300F002089010008B5160008AD16000861
:10001000B1160008D5020008BD1800080000000055
:10002000000000000000000000000000D1170008E0
:10003000FD0200080000000031170008D517000875
:10004000A3010008A3010008A3010008A301000800
:10005000A3010008A3010008A3010008A3010008F0
:10006000A3010008A3010008A3010008A3010008E0
:10007000D9020008A3010008A3010008E502000856
:10008000A3010008F1020008A3010008A301000871
:10009000A3010008A3010008A30100089D030008B4
:1000A000A3010008A3010008A3010008A3010008A0
:1000B000A3010008A3010008A3010008A301000890
:1000C000A3010008A3010008A3010008A301000880
:1000D000A3010008A3010008A3010008A301000870
:1000E00001030008A3010008A301000800F002F8C2
:1000F00000F03AF80AA090E8000C82448344AAF188
:100100000107DA4501D100F02FF8AFF2090EBAE885
:100110000F0013F0010F18BFFB1A43F0010318473B
:10012000EC2700000C280000103A24BF78C878C1E2
:10013000FAD8520724BF30C830C144BF04680C60ED
:10014000704700000023002400250026103A28BF35
:1001500078C1FBD8520728BF30C148BF0B60704739
:100160001FB51FBD10B510BD00F058F81146FFF7C0
:10017000F7FF01F013FC00F076F803B4FFF7F2FF8D
:1001800003BC00F07DF8000009488047094800479B
:10019000FEE7FEE7FEE7FEE7FEE7FEE7FEE7FEE737
:1001A000FEE7FEE704480549054A064B7047000094
:1001B000D9170008ED00000830090020300F00209A
:1001C000300B0020300B00204FF0000200B513462A
:1001D00094469646203922BFA0E80C50A0E80C5067
:1001E000B1F12001BFF4F7AF090728BFA0E80C5018
:1001F00048BF0CC05DF804EB890028BF40F8042B11
:1002000008BF704748BF20F8022B11F0804F18BF7D
:1002100000F8012B7047704770477047754600F033
:100220002BF8AE4605006946534620F00700854688
:1002300018B020B5FFF7B6FFBDE820404FF000062C
:100240004FF000074FF000084FF0000BAC46ACE851
:10025000C009ACE8C009ACE8C009ACE8C00921F0AD
:1002600007018D46704710B50446AFF30080204665
:10027000BDE81040FFF781BF00487047280100200B
:1002800001491820ABBEFEE72600020070470000BF
:1002900041F21800C4F20200016840F2052241F068
:1002A0001001016001681143016040F60000C4F2D2
:1002B000010001684FF60072CFF2F00211400160B8
:1002C00042F20840C4F20100016841F001010160FE
:1002D00070470000FEE7000040F2C450C2F2000088
:1002E00000F0A6B840F2B440C2F2000000F0A0B89E
:1002F00040F2F840C2F2000000F09AB870470000E7
:1003000040F21440C4F20100016841F480610160D0
:1003100040F21810C2F200000268511C23D052BBF8
:1003200040F28C4140F28842C2F20001C2F2000267
:100330000968136840F61802C2F2000202EB41118C
:1003400051F8232001EB830112B3012A22D140F698
:100350001403C2F200031A684FF0020CC1F800C087
:10036000511C196016E040F2B041C2F200010122B6
:100370000A6000210FE0022A0EDB12F0010218BF12
:10038000704740F21412C2F200020023136002E030
:1003900003220A60012101607047000040F214400E
:1003A000C4F20100016841F40071016040F21810CC
:1003B000C2F200000168012922D140F28C4140F2D2
:1003C0008842C2F20001C2F200020968136840F2DA
:1003D0001472C2F2000202EB411151F8232001EB2A
:1003E0008301EAB1012A1DD140F61813C2F20003BD
:1003F0001A684FF0020CC1F800C0511C196011E0DE
:10040000032911DB0A466FF35E02012A18BF704709
:1004100040F21412C2F2000200230131136002E024
:1004200003220A600021016070470000704700004D
:1004300010B5D0E90FCE0168DCF800300A6823FA65
:100440000EF35C0724D512F0040421D00A6892064A
:1004500003D40A6822F004020A602F22C4F20202C6
:10046000914240F20402C4F2020251DD3023C4F290
:100470000203994264D04423C4F20203994262D039
:100480005823C4F20203994262D14FF4802367E0FB
:100490009C0727D512F0020424D00A68920606D4DD
:1004A0000A6822F00A020A60012280F821202F2225
:1004B000C4F20202914240F20402C4F2020233DDAD
:1004C0003023C4F20203994250D04423C4F2020301
:1004D00099424ED05823C4F2020399424ED14FF4B0
:1004E000003353E01B0758D512F0080208BF10BDB7
:1004F0000A6822F00E020A60012101FA0EF2CCF81D
:1005000004208163016B4FF48072028459BB44E084
:100510000823C4F20203994218D01C23C4F2020338
:10052000994215D140231BE00823C4F202039942EB
:1005300022D01C23C4F2020399421FD1202325E0BC
:100540004FF480630CE04FF4804309E0042307E09C
:1005500002F168044FF08063A14208BF4FF48003AA
:100560001360C16AC9B1BDE8104008474FF4007379
:100570000CE04FF4005309E0022307E002F16804A5
:100580004FF00073A14208BF4FF400131360816A5B
:100590000022002980F82020E5D110BD002804BFEA
:1005A000012070472DE9F04101684FF6F872CBF653
:1005B000FD724CF6CD430A44CCF6CC43A2FB032398
:1005C0006FF0030707EA93030027C4F2020700F164
:1005D000040E00F11008C0E90F739EE8045098E87B
:1005E00070010B6843F6F077BB431A4342EA0C02F2
:1005F00042EA0E0222432A43324342EA08020A60D8
:1006000000214FF4807281630284BDE8F041084606
:10061000704700002DE9F041844690F82000012841
:100620002AD09CF821004FF0010E01288CF820E020
:100630001FD102208CF821000020CCF83800DCE922
:100640000048DCE90F652768B8F1100F27F00107B3
:1006500027600EFA05F7776063600B4604BF134608
:100660000A46A360E260216841F001012160BDE813
:10067000F08100208CF820000220BDE8F08100000D
:10068000B0B5044600F018F9054640F21C10C2F25D
:1006900000000078611C18BF044400BF00F00CF992
:1006A000401BA042FAD3B0BD2DE9F04F82B00E68D6
:1006B000002E00F0F88040F20C4C40F2004E41F267
:1006C0000042C4F2010CC4F2010EC4F2010204277C
:1006D000002401234FF0000A4FF00009904208BFA8
:1006E0000327009741E0012704F00C030F229A40F2
:1006F0002BEA020207FA03F34FEA9A051A4346F877
:1007000025204E68F203DEF8002054BF22EA0802DA
:1007100042EA0802CEF80020DEF80420B30354BFFA
:1007200022EA080242EA0802CEF80420F302DEF8C8
:10073000082054BF22EA080242EA0802B302CEF8B7
:100740000820DCF800204FF0010354BF22EA080221
:1007500042EA0802CCF800200E680AF1010A36FAD3
:100760000AF204F1040400F09E8003FA0AFB16EA80
:100770000B08F1D04E684FF6FF72C1F2100296429C
:1007800010DC122E50D8DFE806F0330A41454F4FF7
:100790004F4F4F4F4F4F4F4F4F4F4F484C00D1F897
:1007A0000C9041E04FF6FF72C1F2210296420FDC3D
:1007B0000022C1F2110296421AD00022C1F21202A6
:1007C000964215D00022C1F22102964210D02BE0B1
:1007D0000022C1F2220296420AD00022C1F2310266
:1007E000964205D00022C1F2320296421CD100BFCF
:1007F0008A6842B1012A14BFC0F814B0C0F810B022
:100800004FF0080910E04FF004090DE0CA6802F14A
:10081000080909E04FF0000906E0CA6802F104097E
:1008200002E0CA6802F10C0922460646B8F5807F4C
:1008300024BF203A043637680F25954027EA05057E
:1008400009FA02F22A433260CA79D2067FF584AFF0
:1008500041F21803C4F202031A68AEF57E7642F044
:1008600001021A601A6802F001020192019A2AF04C
:10087000030256F802B040F60002C4F201029042B0
:100880000FD040F60042C4F2010290423FF42BAF79
:1008900041F20002C4F20102009F904208BF022709
:1008A00022E7002720E702B0BDE8F08F002A08BF4A
:1008B000090401617047000040F62810C2F20000F0
:1008C0000068704740F21C1040F62811C2F2000088
:1008D000C2F2000100780A68104408607047000006
:1008E00080B542F20000C4F20200016841F010013C
:1008F0000160032000F086F8002000F005F800F009
:100900002BF8002080BD0000B0B540F21C12C2F2EE
:10091000000240F200011278C2F200014FF47A7333
:100920000968B3FBF2F20446B1FBF2F1084600F0AD
:1009300017FB0F2C4FF001050CD858B94FF0FF30C2
:1009400021460022002500F031F840F22010C2F2CA
:10095000000004602846B0BD82B041F21800C4F225
:100960000200016841F001010160016801F001012C
:1009700001910199416841F080514160406800F067
:1009800080500090009802B070470000002848BFD7
:10099000704700F01F01012202FA01F14EF200122D
:1009A0004009CEF2000242F82010704710B54EF612
:1009B0000C5CCEF2000CDCF80030C3F3022E8EF09B
:1009C0000704042C28BF0424BEF103034FF0FF3EAC
:1009D0000EFA04F438BF0023A14399400EFA03F342
:1009E0009A43114300F1604200F00F03090102F540
:1009F0006442043B6344002848BF03F10C021170B9
:100A000010BD00004EF60C51CEF200010A684FF600
:100A1000FF031A4060F30A2242F0806040F0FD704C
:100A2000086070472DE9F04381B0002800F0858010
:100A300042F20008C4F202080446D8F800000D464D
:100A400000F0070088420CD2D8F8000020F0070020
:100A50002843C8F80000D8F8000000F00700A842BA
:100A60006BD1206841F204098107C4F2020917D54D
:100A7000410705D5D9F8001041F4E061C9F800102C
:100A8000010705D5D9F8001041F46051C9F80010EC
:100A9000D9F80010A26821F0F0011143C9F8001044
:100AA000C00741D1D8F8000000F00700A8420CD9D7
:100AB000D8F8000020F007002843C8F80000D8F854
:100AC000000000F00700A84237D12068410707D591
:100AD000D9F80010E26821F4E0611143C9F8001070
:100AE000000708D5D9F80000216920F4605040EAD9
:100AF000C100C9F80000D9F8002002F00C00082855
:100B000041F20020C0F27A004ED142F6FA03C2F35D
:100B10008341C0F60003595CD20339D440F600107B
:100B2000C0F23D0048433FE06068022809D0012838
:100B300029D159F8041C890307D4012001B0BDE86C
:100B4000F08359F8041C8901F7D5D9F8001021F079
:100B500003010843C9F80000FFF7AEFE064641F264
:100B6000883700BFD9F80000616800F00C00B0EBD6
:100B7000810F97D0FFF7A0FE801BB842F2D9032067
:100B800001B0BDE8F08359F8041C8907D5D5DCE72E
:100B9000D9F8002042F6E003C2F34042C0F6000359
:100BA0009A5C4843B0FBF2F0D9F8001042F6E2023A
:100BB000C1F30311C0F60002515C40F2000220FABA
:100BC00001F140F22010C2F200000068C2F20002FF
:100BD0001160FFF799FE002001B0BDE8F08300002E
:100BE00040F2000041F20401C2F20000C4F202012E
:100BF0000068096842F6F202C1F30221C0F6000261
:100C0000515CC8407047000040F2000041F204010E
:100C1000C2F20000C4F202010068096842F6F20262
:100C2000C1F3C221C0F60002515CC8407047000009
:100C30002DE9F04182B0002800F0D780044600780A
:100C400041F20006C007C4F2020644D0706800F00A
:100C50000C00042817D0706800F00C00082802D19E
:100C60007068C0030FD465682DB1B5F5A02F10D002
:100C7000B5F5803F11D0306820F4803030603068A6
:100C800020F480200CE03068800324D5606810BB1D
:100C9000ABE0306840F480203060306840F4803051
:100CA0003060FFF709FE002D054611D03068800343
:100CB00011D4FFF701FE401B6428F7D916E100BFED
:100CC000FFF7FAFD401B64284FF0030000F28A8012
:100CD00030688003F4D42078800718D5706810F04D
:100CE0000C0F07D0706800F00C00082827D170683E
:100CF000C00324D43068800702D52069012874D14C
:100D00003068616920F0F80040EAC1003060207866
:100D100000074FD5A06940B30020C4F24220012152
:100D2000C0F88014FFF7C8FD054600BF706A800751
:100D30002DD4FFF7C1FD401B0228F7D9D6E020696A
:100D4000002840F20000C4F2422000F0A6800121F9
:100D50000160FFF7B1FD054630688007D0D4FFF78A
:100D6000ABFD401B0228F7D9C0E00020C4F24220AE
:100D70000021C0F88014FFF79FFD0546706A8007C8
:100D800018D5FFF799FD401B0228F7D9AEE040F2D5
:100D90000000C2F20000006844F6D351C1F26201C3
:100DA000A0FB0101480A019000BF0198411E0028E4
:100DB0000191F9D1207840071BD4E5698DB17068A5
:100DC00000F00C00082846D1012D0ED07068216A71
:100DD00000F480328A4208D1616A00F470108842BF
:100DE00003D1002002B0BDE8F081012002B0BDE8CF
:100DF000F081F06910F0805808D1F06940F080501F
:100E0000F061F06900F080500090009847F2000710
:100E1000C4F200073868C0050FD4386840F4807009
:100E20003860FFF749FD05463868C00505D4FFF76F
:100E300043FD401B6428F7D958E0E5681DB1052D36
:100E40003CD0012D3ED0306A20F001003062306A83
:100E500020F0040039E00027C4F242270020386661
:100E6000FFF72AFD022D05460CD100BF3068800136
:100E700054D5FFF721FD401B02284FF00300F5D9A0
:100E8000B0E700BF30688001ABD5FFF715FD401B10
:100E900002284FF00300F5D9A4E700210160FFF715
:100EA0000BFD0546306880077FF531AFFFF704FD85
:100EB000401B02284FF00300F4D993E7306A40F05A
:100EC00004003062306A40F001003062FFF7F4FC49
:100ED000002D054641F2883714D000BF306A8007E4
:100EE00013D4FFF7E9FC401BB842F7D9032002B046
:100EF000BDE8F081FFF7E0FC401BB8424FF0030073
:100F00003FF670AF306A8007F4D4B8F1000F7FF479
:100F100054AFF06920F08050F0614EE7206AB0F5E0
:100F2000803F05D17168A26821F4003111437160DE
:100F30007168626A21F474111143084370600120E2
:100F40003866FFF7B9FC0446306880013FF549AFC9
:100F5000FFF7B2FC001B02284FF00300F4D941E771
:100F6000411E0020B0EB116F1CBF012070474EF2F4
:100F70001002CEF2000251604EF62351CEF2000173
:100F8000F0230B70072190601160704710B590F846
:100F90003C20012A4FF0020216D080F83D20026862
:100FA0005368D2F808C023F0700ED1E900342CF059
:100FB000800143EA0E032143536091600121002226
:100FC00080F83D1080F83C20104610BD002804BF7A
:100FD0000120704710B5044690F83D0028B9002064
:100FE00084F83C00204600F04BF8022084F83D00D5
:100FF000206840F2FF730268C4F2000342F6004C1E
:101000009842C4F2010C05DCB0F1804F0AD040F2E6
:10101000004103E0604505D040F60001C4F2000144
:10102000884203D1A16822F070020A43984205DC8D
:10103000B0F1804F0AD040F2004103E0604505D096
:1010400040F60001C4F20001884203D1216922F474
:1010500040720A43A36922F08001D4F804E0E268F8
:10106000194360450160C262C0F828E002D161699D
:10107000CCF8301001214161002084F83D1010BDF2
:101080002DE9F04F81B004460068B0F1804F02D0E6
:1010900001B0BDE8F08F41F21C00C4F2020001680B
:1010A00040F2C45541F0010101600068C2F2000540
:1010B00000F00100009000981C214FF4807605F1AB
:1010C0001000C4F202014FF0100800274FF48069AD
:1010D0004FF0200A4FF4405B80E8400E2846C5E9F7
:1010E0000018C5E90277FFF759FA002818BFFFF783
:1010F0009DF91C2025626C62C4F2020040F2B445E6
:101100003C30C2F20005C5E9000805F1100080E896
:10111000400E2846C5E90277FFF740FA002818BFBD
:10112000FFF784F91C2065626C62C4F2020040F291
:10113000F8456430C2F200051021002285E807005E
:1011400005F10C004FF480734FF4806720264FF4B4
:10115000405C8CC02846C5E9066CFFF71FFA0028E2
:1011600018BFFFF763F9A5626C62256301B0BDE8A3
:10117000F08F000080B590F83C20012A4FF0020269
:1011800000F0C080012380F83C3080F83D20D0F88A
:1011900000C04FF67772DCF8083023EA0202CCF880
:1011A00008200B683F2B1CDD5F2B20DD602B4FD010
:1011B000B3F5005F6CD0702B40F09E80D1E901E365
:1011C000C968DCF8082043EA0E0322F47F4243EAB0
:1011D00001211143CCF80810DCF8081041F0770128
:1011E00088E01F2B28DC5BB3102B29D084E0402B38
:1011F00061D0502B40F08080D1F804E0C968DCF861
:101200002030DCF8202022F00102CCF82020DCF88D
:10121000182022F0F00242EA011123F00A0242EA09
:101220000E02CCF81810CCF82020DCF8081041F0A1
:10123000570121F020015DE0202B01D0302B5BD144
:10124000DCF8081021F07001194341F0070151E06A
:10125000D1F804E0C968DCF8203023F01003CCF8A2
:101260002030DCF81830DCF8202023F4704322F022
:10127000A00243EA013142EA0E12CCF81810CCF871
:101280002020DCF8081041F0670121F0100131E066
:10129000D1E901E3C968DCF8082043EA0E0322F42F
:1012A0007F4243EA01211143CCF80810DCF8081012
:1012B00041F480411EE0D1F804E0C968DCF8203038
:1012C000DCF8202022F00102CCF82020DCF81820E5
:1012D00022F0F00242EA011123F00A0242EA0E0271
:1012E000CCF81810CCF82020DCF8081041F04701A9
:1012F00021F03001CCF808100121002280F83D10C7
:1013000080F83C20104680BD2DE9F04190F83C303B
:10131000012B4FF0020300F0F9804FEAB2024FF0C8
:10132000010C032A80F83CC080F83D3000F2E980CF
:10133000DFE802F0023977B5036842F600461A6A20
:10134000C4F2010622F001021A621C6A1A465D68A4
:1013500052F818EF8F6824F00204B34244EA0704FD
:1013600005D1CF6824F00C0427F004073C430F6834
:10137000B34206D125F44078D1E9056546EA08066E
:1013800035432EF0730637435D609F614F680969EE
:101390005F631C629F6947F008079F619F6927F0A0
:1013A00004079F61AAE0036842F600461A6AC4F285
:1013B000010622F010021A621D6A1A46D3F804E0F0
:1013C00052F8184F8F6825F02005B34245EA0715FB
:1013D00008D1CF6825F0C0086FF0400505EA071571
:1013E00045EA08050F68B34207D1D1E905862EF416
:1013F000406E46EA08064EEA860E24F4E64444EAC5
:101400000724C3F804E09C614F6809699F631D626B
:101410009F6947F400679F619F6927F480679F6118
:101420006BE0036842F600461A6AC4F2010622F431
:1014300080721A621D6A1A46D3F804E052F81C4FF3
:101440008F6825F40075B34245EA072509D1CF68B6
:1014500025F440683F0240F2FF4527EA050545EACA
:1014600008050F68B34207D1D1E905862EF4405E26
:1014700046EA08064EEA061E24F073043C43C3F80D
:1014800004E0DC614F680969DF631D62DF6947F0D2
:101490000807DF61DF6927F00407DF612EE00368DA
:1014A00042F600441A6AC4F2010422F480521A621D
:1014B0001A46D3F820E05E6852F81C8F0D688F68DA
:1014C000A34204D14C6926F4804646EA84162EF4E1
:1014D000005444EA073728F4E64444EA05255E60F0
:1014E000DD614E6809691E641F62DF6947F40067A9
:1014F000DF61DF6927F48067DF6109021368194340
:101500001160002380F83DC080F83C301846BDE8EB
:10151000F0810000002804BF0120704710B5044688
:1015200090F83D0028B9002084F83C00204600F0E7
:101530004BF8022084F83D00206840F2FF730268F7
:10154000C4F2000342F6004C9842C4F2010C05DCE0
:10155000B0F1804F0AD040F2004103E0604505D071
:1015600040F60001C4F20001884203D1A16822F0D4
:1015700070020A43984205DCB0F1804F0AD040F275
:10158000004103E0604505D040F60001C4F20001CF
:10159000884203D1216922F440720A43A36922F0F0
:1015A0008001D4F804E0E268194360450160C2623A
:1015B000C0F828E002D16169CCF830100121416106
:1015C000002084F83D1010BD70470000002804BFC3
:1015D0000120704710B5044690F8390028B9002062
:1015E00084F83800204600F021F8242084F83900DF
:1015F0002068C16821F40051C160204600F014F950
:101600002068016921F490410161416921F02A01BA
:101610004161C16841F40051C16000202021E063B4
:1016200084F8391084F83A1010BD000070B586B007
:1016300040F60004C4F20104006804F5405100269D
:1016400088420596CDE90366029601D006B070BDCA
:1016500041F21800C4F20200016802AD41F4804179
:101660000160016801F4804101910199016841F034
:10167000040101600068294600F00400019001980F
:101680004FF4007002900220039003200590204642
:10169000FFF70AF84FF48060CDE90206204629469C
:1016A0000496FFF701F806B070BD0000FEE70000E9
:1016B000FEE700007047000040F60440C4F201005D
:1016C000016800210160016841F488610160102017
:1016D000C4F20100016841F010010160D0F8F0137C
:1016E00041F40071C0F8F013D0F8F81341F4007120
:1016F000C0F8F8134EF20011CEF200010A6842F46D
:1017000000020A60026842F480720260D0F8F0239E
:1017100042F48062C0F8F023D0F8F82342F48062EB
:10172000C0F8F823486840F48070486070470000B3
:1017300070470000014606284FF6FF7038D8CAB23D
:10174000532323FA02F2D20708BF704719A050F8BA
:10175000211042F20040C4F2010041630121816086
:1017600001688907FCD5C06C81B2B1F5407F3CBFF0
:1017700000207047B1F5806F3CBF01207047B1F584
:10178000C06F3CBF02207047B1F5006F3CBF032023
:101790007047B1F5206F3CBF04207047B1F5406F32
:1017A0003CBF052070470720B1F5606F38BF0620A9
:1017B000704700BF000000000100000000000000B2
:1017C000000000000400000000000000060000000F
:1017D00070470000FFF776B841F20000C4F2020043
:1017E0000168002241F0010101604168CFF6FF026B
:1017F0001140416001684FF6FF72CFF6F66211406A
:101800000160016821F480210160416821F4FE013A
:1018100041604FF41F0181604EF60850CEF2000087
:101820004FF000610160704710B504460068D4E9CC
:1018300002C22369016921F44051114301616169C8
:1018400043EA0C021143C26841F20C639A4311430C
:10185000C1604169A26921F44071114343F600025D
:10186000C4F201029042416102D0FFF7B9F901E0F0
:10187000FFF7CAF96268192148439100B0FBF1F003
:1018800048F21F51C5F2EB11A0FB01235A094FF694
:101890009C73C0F6FF7302FB0300322303EB0010BE
:1018A000A0FB0101F02303EA5113206803EB0212AD
:1018B000C1F343111144816010BD0000FEE7000038
:1018C00041F21800C4F20200016840F61C1241F017
:1018D0001001016040F20C70C2F2000081780088B3
:1018E000C2F20002108040F20E10C2F200009170AD
:1018F00001888078A2F80310507140F20810C2F2FB
:10190000000001888078D180107240F20B10C2F282
:10191000000001888078A2F80910D07240F600001B
:10192000C4F20100016841F440110160016821F432
:1019300040010160D0F8001441F40801C0F800141F
:10194000D0F8001421F4EE01C0F800147047000034
:10195000B0B50128B8BFB0BD42F600450446C4F298
:10196000010500BF686C40F404406864286840F0DA
:10197000810028604FF47A70FEF782FE686C20F4D4
:1019800004406864286820F0810028604FF47A7071
:10199000FEF776FE013CE5D1B0BD000094B040F604
:1019A0000049C4F20109FEF79BFF08AD2846282133
:1019B000FEF70AFC00244FF480300226CDE909042A
:1019C000CDE90F604FF4E0100127119028460794ED
:1019D000CDE90544CDE9034408970C97FFF728F9B2
:1019E0000F20CDE903064FF48060CDE9060403A87B
:1019F00002210594FFF716F841F21806CDE90A44D2
:101A0000CDE90844C4F2020630684FF6FF6140F0A9
:101A1000200030603068002200F02000039003981E
:101A2000306840F008003060306800F00800039033
:101A30000398306840F004003060306800F0040023
:101A4000039003984846FEF731FF48464FF48071F3
:101A50000122FEF72BFF032008AD4FF6FF780B9015
:101A600048462946CDE908870A94FEF71DFE4FF443
:101A7000004008A991C1A9F5806029464F46FEF7AC
:101A800013FE56F8040C002140F0010046F8040C47
:101A900056F8040C002200F00100089008980C2071
:101AA0000C25FEF783FF0C20FEF770FF0F200021AE
:101AB0000022FEF77BFF0F20FEF768FF11200021B8
:101AC0000022FEF773FF1120FEF760FF40F2CC60AA
:101AD00043F60001C2F20000C4F201014FF4E1320A
:101AE00080E81600C0E90344C0E90554C461FFF76B
:101AF0006DFD40F24C65C2F200054FF08040C5E933
:101B000000042846CDE90544CDE90344CDE912445B
:101B10000E94CDE90C44CDE90A44CDE90844C5E969
:101B200002482C61AC61FFF751FA4FF480500390EA
:101B300003A92846FFF71EFB2846FFF7EBFC12A976
:101B40002846CDE91244FFF721FA60200DF1200864
:101B5000CDE908042846414600220A940C94FFF778
:101B6000D3FB284641460422FFF7CEFBFFF7A8FE31
:101B700040F21811C2F200014FF0FF30086040F649
:101B80001400C2F20000046040F61810C2F2000017
:101B900040F2B045046040F21470C2F20005C2F297
:101BA00000004FF480712C60FEF70EFB40F6180A1F
:101BB000C2F2000A50464FF48071FEF705FBFEF7B3
:101BC00067FBFFF779FD00F0F7FAC82062B6FEF771
:101BD00057FD40F2881BA8F10800C2F2000B4FF439
:101BE000C07100BF0BEB040204F5C07440F8082F6D
:101BF000B4F5C07F4160F5D000F0AAFB40F2241894
:101C000001200123C2F2000801900020029019E097
:101C100040F61400C2F200000021016040F61810E6
:101C2000C2F2000040F2B0450160C2F2000502209D
:101C30002860EFF3108072B608A8394600F0ECFB7C
:101C4000012362B62868012806D0002800F06881C8
:101C50000228F7D104E200BF40F218104FF0020949
:101C6000C2F2000000250026C0F8009015E000BF79
:101C700040F21810C2F20000006801230228A8BF39
:101C8000B14500F37F8040F21810C2F200000068F6
:101C900009F10109072880F2938040F21410C2F282
:101CA0000000B9F1040F88BF0126036013E000BFF4
:101CB00040F60047EFF3108072B6C4F2010708A89F
:101CC000394600F0A9FB40F21410C2F2000062B6DF
:101CD00000680028CCD0B868B5FA85F1C00658BFB6
:101CE0004D09EFF3108072B60020FFF723FD40F29C
:101CF0008841C2F2000108600120FFF71BFD40F29D
:101D00008C4140F21477C2F20001C2F20007086071
:101D100058463946524662B65C4600F08BFA0BF5DF
:101D2000C074204651463A4600F084FA40F218103A
:101D3000C2F2000000680228A8BFB145B8DD40F239
:101D40008C4040F28841C2F20000C2F200010068FB
:101D5000096800EB400001EB410101EBC0001521D7
:101D600069435844C1F11801324600BF98F8023067
:101D7000B8F8007001328370078091450844F5D1AE
:101D800096E700BF40F28C40C2F2000040F288416A
:101D90000068C2F200010968400100EB810040F2D6
:101DA0001471C2F200010844C5EBC5012022A2EB68
:101DB000810132460132036091450844FAD162E75D
:101DC00040F21810C2F200000068073804283FF6FD
:101DD0001FAF022500264FF0000914E040F2181052
:101DE000C2F20000006801230728A8BF4D4500F398
:101DF0007D8040F21810C2F20000006801350738FB
:101E00000528BFF405AF40F21410C2F20000042D03
:101E100088BF4FF00109036013E000BF40F60047A0
:101E2000EFF3108072B6C4F2010708A8394600F03B
:101E3000F3FA40F21410C2F2000062B60068002803
:101E4000CCD0B868B6FA86F1800658BF4E09EFF3D9
:101E5000108072B60420FFF76DFC40F28841C2F298
:101E6000000108600620FFF765FC40F28C4140F25B
:101E70001477C2F20001C2F20007086058463946E2
:101E8000524662B600F0D6F9204651463A4600F076
:101E9000D1F940F21810C2F2000000680228A8BF71
:101EA0004D45BBDD40F28C4040F28841C2F200005B
:101EB000C2F200010068096800EB400001EB41013B
:101EC00001EBC00015215844714300F5C070C1F109
:101ED00018014A4698F80230B8F800700132837051
:101EE000078095420844F5D198E700BF40F28C4046
:101EF000C2F2000040F288410068C2F200010968A5
:101F0000400100EB8100C6EBC60120225044A2EB49
:101F100081014A460132036095420844FAD168E7DC
:101F200041F20800C4F201000068800451D440F27C
:101F30001470C2F200000322022103604260C0E973
:101F400010324266C0F88420C0F8A420C0F8C42033
:101F5000C0F8E420C0E90333C0E90533C361C0E938
:101F60000812C0F88830C0F8A830C0F8C830C0F8EF
:101F7000E830C0F89030C0F8B030C0F8D030C0F8C9
:101F8000F030C0F8FC30C0F8DC3040F61400CAE98C
:101F90000021CAE90622C2F200001122026040F6C6
:101FA0001810C2F20000CAF82410CAF84410CAE996
:101FB0003A11CAE93C11CAF8F810CAE93211CAE963
:101FC0003411CAE90213CAE90411CAE91411036001
:101FD0002960002011E000BF40F20F77C2F2000735
:101FE000BB783F88937017800F80013040F6004720
:101FF0008028C4F201078B7016D000EB40010BEB78
:1020000001020299884202F5C071E5DD40F2040741
:10201000C2F20007BB783F8893701780B8F80020A1
:1020200098F802300A80E0E702990198002948BF39
:1020300001207F29C8BF00200128019018BF4FF060
:10204000FF3001440291EFF3108072B608A83946C0
:1020500000F0E2F9C82062B6FEF712FB0123F1E5B9
:102060000320FFF775FC40F2181140F2147840F697
:1020700018060020C2F20001C2F20008C2F20006F7
:102080000BF5C0770DF12009086000BF58464146A6
:10209000324600F0CFF838463146424600F0CAF8E2
:1020A000EFF3108072B640F21810C2F20000006820
:1020B00020B1012812D10424062000E00124FFF7FA
:1020C00039FB40F28841C2F2000108602046FFF768
:1020D00031FB40F28C41C2F20001086040F28840BE
:1020E00040F28C4140F21812C2F20000C2F200012C
:1020F000C2F2000262B600680968126840F2040584
:1021000000EBC10002EB4201C2F200050BEBC11172
:1021100000EB40002B88AD780144A1F8C03081F875
:10212000C250C2F1010101EB41010BEBC1110A18D0
:102130000B529570EFF3108072B640F6004148469E
:10214000C4F2010100F068F940F61400C2F2000088
:1021500062B60068122818DA40F61810C2F20000C1
:102160000068122892DB012000F098F80320FFF7A6
:10217000EFFBEFF3108072B640F6004108A8C4F2FE
:10218000010100F049F962B610E0002000F086F885
:102190000320FFF7DDFBEFF3108072B640F600413D
:1021A00008A8C4F2010100F037F962B647F23050D6
:1021B000FEF766FAFFF7F2FB41F21800C4F20200E4
:1021C000016841F400610160016841F005010160AE
:1021D00040F60400C4F20100016841F00F01016003
:1021E00042F61840C4F2010050F8181C41F00101F9
:1021F00040F8181C50F8141C41F4807140F8141C6D
:1022000050F8041C41F0010140F8041C016841F041
:1022100060010160016841F00C010160816841F0DA
:102220000101816040F65F110161C82141613221E5
:10223000C161704770B500F1BD0C40F61C104FF045
:10224000000EC2F2000000BF0023644651F8235084
:1022500005EB4505465B054424F8BD6CAD7804F8F4
:10226000BB5C52F82350013305EB4506012D0546B2
:1022700018BF35442E88082B24F8036FAD78A5705D
:10228000E4D10EF1010EBEF1080F02F1200201F1BE
:1022900020010CF1180C08BF70BDD5E72DE9F04303
:1022A00040F28812A0EB8001C2F2000200EB400075
:1022B00002EBC11802EBC01040F20802C2F20002A9
:1022C00000F1C109A2F1200C002300224FF0000E02
:1022D00002F1A8040025664656F8201F09EB050008
:1022E00001294FF0000102EB050720F8C03C08BFB0
:1022F000052100F8C11C20F8013C4370AC424FF0AE
:10230000000008BF0520002F08EB050105F11805A6
:1023100008BF0520C02D81F8810181F8803181F846
:10232000823181F8413281F8403281F84232D3D192
:102330000EF1010E08F10308BEF1080F09F10309BF
:10234000A2F118020CF1040C08BFBDE8F083BFE74E
:10235000F0B58FB041F21400C4F20200016800220F
:1023600041F0010101600068002100F001000190CE
:1023700001980C200026FEF719FB0F2000210022F7
:10238000FEF714FB112000210022FEF70FFB40F2A4
:102390008C64C2F200044FF080405A21C4E9000668
:1023A0002046CDE90D66CDE90B660996CDE90766B5
:1023B000CDE90566CDE90366CDE90166C4E90261B0
:1023C0002661A661FEF702FE4FF480500B900BA928
:1023D0002046FEF7CFFE2046FFF79CF808A92046CE
:1023E000CDE90866FEF7D2FD1C2001AD6027CDE9DE
:1023F000020620462946002201970596FEF784FF33
:102400003920CDE902062046294604220197059687
:10241000FEF77AFF0FB0F0BD2DE9F04F85B040F622
:102420002C1C8046C2F2000C4FF0000E4FF0000949
:102430000391ACF800E03CE0D8F8080010F809007F
:102440006FEA000BCBF3C01060F34107CBF38010B1
:1024500060F34106CBF3401060F34101CBF3001071
:1024600060F34105CBF3C00060F34104CBF380007F
:1024700060F34102CBF3400060F34103CBF3000073
:1024800060F3410A40F2904BC2F2000B0BEB0E00DE
:102490002BF80E700EF1100EBEF1100F09F10109AC
:1024A00046808180C580048142818381A0F80EA08E
:1024B0003DD1D8F80400484506DDD8F8000010F8F2
:1024C00009006FEA000B01E04FF0FF0B0027002628
:1024D000002100250024002200234FF0000ACBF346
:1024E000C01060F30007CBF3801060F30006CBF35D
:1024F000401060F30001CBF3001060F30005CBF354
:10250000C00060F30004CBF3800060F30002CBF363
:10251000400060F30003CBF3000060F3000AD8F83A
:102520000C0048453FF788AF4FF0FF0B8AE7BCF837
:102530000020DDF80C9000200FF2943301270021D9
:1025400003E000BF013101290ED108EBC106766816
:102550008642C8BF3046002EF4D05E5C07FA06F60D
:102560003243ACF80020EDE740F28C61C2F200018A
:102570000A6841F21113D16821F48071D160D168E9
:1025800021F40071D160D16821F48061D160116AB9
:10259000194208D1116A40F24443194203D111682B
:1025A00021F001011160BCF800104B4643F8141FE4
:1025B000009311680530019041F001001060002087
:1025C0006FF001011369DB07FCD00130E1281161D4
:1025D000F8D1106A41F21111084208D1106A40F294
:1025E0004441084203D1106820F00100106041F21C
:1025F0001C00C4F202000168002741F001010160E3
:102600000068C4F2020700F0010040F20864049080
:1026100007F11C06C2F20004102240F23C55049857
:10262000C4E9006207F15806C2F20005C5E900627C
:1026300040F28056002005F10801C2F200064FF476
:10264000007E4FF4806A4FF0200B4FF44053C4E9F2
:1026500002004FF0800C81E8015007F18001C6E9CB
:1026600002002046C4E904EAC4E906B3C5E905ABA3
:10267000EB61C6E90012C6E904EAC6E906B3FDF754
:102680008DFF2846FDF78AFF3046FDF787FF09F1E9
:10269000100240F62C19C2F20009204649461023C8
:1026A000FDF7B8FF009C40F290412846C2F20001BD
:1026B00022461023FDF7AEFF30464946224610233E
:1026C000FDF7A8FF40F28C60C2F200000068022211
:1026D000C16841F48071C160C16841F40071C1609A
:1026E000C16841F48061C160C16A0A3941624FF436
:1026F000C0217960016841F001010160CDF80880D6
:1027000001988242C8BF1046013003905AE000BFD2
:102710008068805C6FEA000ECEF3C01060F3410465
:10272000CEF3801060F3410CCEF3401060F3410B08
:10273000CEF3001060F3410ACEF3C00060F341090C
:10274000CEF3800060F34101CEF3400060F3410717
:10275000CEF3000060F3410640F29045C2F200055E
:10276000122025F80840002B08BF022025F800C0E1
:102770004FF0140008BF042025F800B04FF01600F9
:1027800008BF062025F800A01820002B08BF08204D
:1027900025F800904FF01A0008BF0A2029524FF088
:1027A0001C0008BF0C202F521E20002B08BF0E203B
:1027B00003990132DDF8088000279142C4F2020734
:1027C0002E524CD0386810F4C02F99D04FF4C0204E
:1027D000D7F800E07860D8F80400904204DDD8F81B
:1027E0000000805CC34300E0FF2300244FF0000C96
:1027F0004FF0000B4FF0000A4FF0000900210027B6
:102800000026C3F3C01060F30004C3F3801060F32C
:10281000000CC3F3401060F3000BC3F3001060F32F
:10282000000AC3F3C00060F30009C3F3800060F343
:102830000001C3F3400060F30007C3F3000060F33E
:102840000006D8F80C0010250EF4003390424046E4
:1028500005EA5E383FF75CAF4FF0FF0E5CE740F2F1
:102860008C60C2F20000006841F21112016A11424C
:1028700008D1016A40F24442114203D1016821F0BB
:102880000101016040F62C10C2F20000008800999E
:10289000086040F20860C2F200000068016821F0A0
:1028A0000101016040F23C50C2F200000068016882
:1028B00021F00101016040F28050C2F20000006886
:1028C000016821F00101016005B0BDE8F08F00BF93
:1028D000000102030405060708090A0B0C0D0E0F80
:1028E00001020000000000000000010203040607CE
:1028F00008090000000001020304020304050607A2
:1029000008090A0B0C0D0E0F1010000030290008EA
:10291000000000202801000028010008582A0008B3
:1029200028010020080E00004401000800000000FB
:1029300000A24A04000005000000000000000000A2
:102940000000000000000000000000000000000087
:102950000000000000000000000000000000000077
:102960000000000000000000000000000000000067
:102970000000000000000000000000000000000057
:102980000000000000000000000000000000000047
:102990000000000001000000000000000000000036
:1029A0000000000000000000000000000000000027
:1029B0000100000000000000000000000000000016
:1029C0000000000000000000000000000100000006
:1029D00000000000000000000100000000000000F6
:1029E00000000000000000000100000000000000E6
:1029F00000000000000000000000000001000000D6
:102A000000000000010000000000000000000000C5
:102A100000000000000000000000000000000000B6
:102A200001000000000000000000000000000000A5
:102A3000000000000000000000050005050500057D
:102A40000500000001000000FFFFFFFF0100000083
:082A5000100000000505000064
:04000005080000ED02
:00000001FF
